{
  "_format": "hh-sol-artifact-1",
  "contractName": "Steve",
  "sourceName": "contracts/Steve.sol",
  "abi": [
    {
      "inputs": [
        {
          "internalType": "string",
          "name": "name_",
          "type": "string"
        },
        {
          "internalType": "string",
          "name": "symbol_",
          "type": "string"
        },
        {
          "internalType": "uint256",
          "name": "initialSupply_",
          "type": "uint256"
        }
      ],
      "stateMutability": "nonpayable",
      "type": "constructor"
    },
    {
      "anonymous": false,
      "inputs": [
        {
          "indexed": true,
          "internalType": "address",
          "name": "owner",
          "type": "address"
        },
        {
          "indexed": true,
          "internalType": "address",
          "name": "spender",
          "type": "address"
        },
        {
          "indexed": false,
          "internalType": "uint256",
          "name": "value",
          "type": "uint256"
        }
      ],
      "name": "Approval",
      "type": "event"
    },
    {
      "anonymous": false,
      "inputs": [
        {
          "indexed": true,
          "internalType": "address",
          "name": "previousOwner",
          "type": "address"
        },
        {
          "indexed": true,
          "internalType": "address",
          "name": "newOwner",
          "type": "address"
        }
      ],
      "name": "OwnershipTransferred",
      "type": "event"
    },
    {
      "anonymous": false,
      "inputs": [
        {
          "indexed": false,
          "internalType": "address",
          "name": "account",
          "type": "address"
        }
      ],
      "name": "Paused",
      "type": "event"
    },
    {
      "anonymous": false,
      "inputs": [
        {
          "indexed": true,
          "internalType": "address",
          "name": "from",
          "type": "address"
        },
        {
          "indexed": true,
          "internalType": "address",
          "name": "to",
          "type": "address"
        },
        {
          "indexed": false,
          "internalType": "uint256",
          "name": "value",
          "type": "uint256"
        }
      ],
      "name": "Transfer",
      "type": "event"
    },
    {
      "anonymous": false,
      "inputs": [
        {
          "indexed": false,
          "internalType": "address",
          "name": "account",
          "type": "address"
        }
      ],
      "name": "Unpaused",
      "type": "event"
    },
    {
      "inputs": [
        {
          "internalType": "address",
          "name": "owner",
          "type": "address"
        },
        {
          "internalType": "address",
          "name": "spender",
          "type": "address"
        }
      ],
      "name": "allowance",
      "outputs": [
        {
          "internalType": "uint256",
          "name": "",
          "type": "uint256"
        }
      ],
      "stateMutability": "view",
      "type": "function"
    },
    {
      "inputs": [
        {
          "internalType": "address",
          "name": "spender",
          "type": "address"
        },
        {
          "internalType": "uint256",
          "name": "amount",
          "type": "uint256"
        }
      ],
      "name": "approve",
      "outputs": [
        {
          "internalType": "bool",
          "name": "",
          "type": "bool"
        }
      ],
      "stateMutability": "nonpayable",
      "type": "function"
    },
    {
      "inputs": [
        {
          "internalType": "address",
          "name": "account",
          "type": "address"
        }
      ],
      "name": "balanceOf",
      "outputs": [
        {
          "internalType": "uint256",
          "name": "",
          "type": "uint256"
        }
      ],
      "stateMutability": "view",
      "type": "function"
    },
    {
      "inputs": [],
      "name": "decimals",
      "outputs": [
        {
          "internalType": "uint8",
          "name": "",
          "type": "uint8"
        }
      ],
      "stateMutability": "view",
      "type": "function"
    },
    {
      "inputs": [
        {
          "internalType": "address",
          "name": "spender",
          "type": "address"
        },
        {
          "internalType": "uint256",
          "name": "subtractedValue",
          "type": "uint256"
        }
      ],
      "name": "decreaseAllowance",
      "outputs": [
        {
          "internalType": "bool",
          "name": "",
          "type": "bool"
        }
      ],
      "stateMutability": "nonpayable",
      "type": "function"
    },
    {
      "inputs": [
        {
          "internalType": "address",
          "name": "spender",
          "type": "address"
        },
        {
          "internalType": "uint256",
          "name": "addedValue",
          "type": "uint256"
        }
      ],
      "name": "increaseAllowance",
      "outputs": [
        {
          "internalType": "bool",
          "name": "",
          "type": "bool"
        }
      ],
      "stateMutability": "nonpayable",
      "type": "function"
    },
    {
      "inputs": [
        {
          "internalType": "uint256",
          "name": "amount",
          "type": "uint256"
        }
      ],
      "name": "mintFurther",
      "outputs": [],
      "stateMutability": "nonpayable",
      "type": "function"
    },
    {
      "inputs": [],
      "name": "name",
      "outputs": [
        {
          "internalType": "string",
          "name": "",
          "type": "string"
        }
      ],
      "stateMutability": "view",
      "type": "function"
    },
    {
      "inputs": [],
      "name": "owner",
      "outputs": [
        {
          "internalType": "address",
          "name": "",
          "type": "address"
        }
      ],
      "stateMutability": "view",
      "type": "function"
    },
    {
      "inputs": [],
      "name": "pauseToken",
      "outputs": [],
      "stateMutability": "nonpayable",
      "type": "function"
    },
    {
      "inputs": [],
      "name": "paused",
      "outputs": [
        {
          "internalType": "bool",
          "name": "",
          "type": "bool"
        }
      ],
      "stateMutability": "view",
      "type": "function"
    },
    {
      "inputs": [],
      "name": "renounceOwnership",
      "outputs": [],
      "stateMutability": "nonpayable",
      "type": "function"
    },
    {
      "inputs": [],
      "name": "symbol",
      "outputs": [
        {
          "internalType": "string",
          "name": "",
          "type": "string"
        }
      ],
      "stateMutability": "view",
      "type": "function"
    },
    {
      "inputs": [],
      "name": "totalSupply",
      "outputs": [
        {
          "internalType": "uint256",
          "name": "",
          "type": "uint256"
        }
      ],
      "stateMutability": "view",
      "type": "function"
    },
    {
      "inputs": [
        {
          "internalType": "address",
          "name": "recipient",
          "type": "address"
        },
        {
          "internalType": "uint256",
          "name": "amount",
          "type": "uint256"
        }
      ],
      "name": "transfer",
      "outputs": [
        {
          "internalType": "bool",
          "name": "",
          "type": "bool"
        }
      ],
      "stateMutability": "nonpayable",
      "type": "function"
    },
    {
      "inputs": [
        {
          "internalType": "address",
          "name": "sender",
          "type": "address"
        },
        {
          "internalType": "address",
          "name": "recipient",
          "type": "address"
        },
        {
          "internalType": "uint256",
          "name": "amount",
          "type": "uint256"
        }
      ],
      "name": "transferFrom",
      "outputs": [
        {
          "internalType": "bool",
          "name": "",
          "type": "bool"
        }
      ],
      "stateMutability": "nonpayable",
      "type": "function"
    },
    {
      "inputs": [
        {
          "internalType": "address",
          "name": "newOwner",
          "type": "address"
        }
      ],
      "name": "transferOwnership",
      "outputs": [],
      "stateMutability": "nonpayable",
      "type": "function"
    },
    {
      "inputs": [],
      "name": "unpauseToken",
      "outputs": [],
      "stateMutability": "nonpayable",
      "type": "function"
    }
  ],
  "bytecode": "0x60806040523480156200001157600080fd5b5060405162002593380380620025938339818101604052810190620000379190620003ff565b8282816003908051906020019062000051929190620002c6565b5080600490805190602001906200006a929190620002c6565b50505060006200007f6200015460201b60201c565b905080600560006101000a81548173ffffffffffffffffffffffffffffffffffffffff021916908373ffffffffffffffffffffffffffffffffffffffff1602179055508073ffffffffffffffffffffffffffffffffffffffff16600073ffffffffffffffffffffffffffffffffffffffff167f8be0079c531659141344cd1fd0a4f28419497f9722a3daafe3b4186f6b6457e060405160405180910390a3506000600560146101000a81548160ff0219169083151502179055506200014b33826200015c60201b60201c565b5050506200070b565b600033905090565b600073ffffffffffffffffffffffffffffffffffffffff168273ffffffffffffffffffffffffffffffffffffffff161415620001cf576040517f08c379a0000000000000000000000000000000000000000000000000000000008152600401620001c690620004da565b60405180910390fd5b620001e360008383620002c160201b60201c565b8060026000828254620001f7919062000591565b92505081905550806000808473ffffffffffffffffffffffffffffffffffffffff1673ffffffffffffffffffffffffffffffffffffffff16815260200190815260200160002060008282546200024e919062000591565b925050819055508173ffffffffffffffffffffffffffffffffffffffff16600073ffffffffffffffffffffffffffffffffffffffff167fddf252ad1be2c89b69c2b068fc378daa952ba7f163c4a11628f55a4df523b3ef83604051620002b59190620004fc565b60405180910390a35050565b505050565b828054620002d4906200062e565b90600052602060002090601f016020900481019282620002f8576000855562000344565b82601f106200031357805160ff191683800117855562000344565b8280016001018555821562000344579182015b828111156200034357825182559160200191906001019062000326565b5b50905062000353919062000357565b5090565b5b808211156200037257600081600090555060010162000358565b5090565b60006200038d62000387846200054d565b62000519565b905082815260208101848484011115620003a657600080fd5b620003b3848285620005f8565b509392505050565b600082601f830112620003cd57600080fd5b8151620003df84826020860162000376565b91505092915050565b600081519050620003f981620006f1565b92915050565b6000806000606084860312156200041557600080fd5b600084015167ffffffffffffffff8111156200043057600080fd5b6200043e86828701620003bb565b935050602084015167ffffffffffffffff8111156200045c57600080fd5b6200046a86828701620003bb565b92505060406200047d86828701620003e8565b9150509250925092565b600062000496601f8362000580565b91507f45524332303a206d696e7420746f20746865207a65726f2061646472657373006000830152602082019050919050565b620004d481620005ee565b82525050565b60006020820190508181036000830152620004f58162000487565b9050919050565b6000602082019050620005136000830184620004c9565b92915050565b6000604051905081810181811067ffffffffffffffff82111715620005435762000542620006c2565b5b8060405250919050565b600067ffffffffffffffff8211156200056b576200056a620006c2565b5b601f19601f8301169050602081019050919050565b600082825260208201905092915050565b60006200059e82620005ee565b9150620005ab83620005ee565b9250827fffffffffffffffffffffffffffffffffffffffffffffffffffffffffffffffff03821115620005e357620005e262000664565b5b828201905092915050565b6000819050919050565b60005b8381101562000618578082015181840152602081019050620005fb565b8381111562000628576000848401525b50505050565b600060028204905060018216806200064757607f821691505b602082108114156200065e576200065d62000693565b5b50919050565b7f4e487b7100000000000000000000000000000000000000000000000000000000600052601160045260246000fd5b7f4e487b7100000000000000000000000000000000000000000000000000000000600052602260045260246000fd5b7f4e487b7100000000000000000000000000000000000000000000000000000000600052604160045260246000fd5b620006fc81620005ee565b81146200070857600080fd5b50565b611e78806200071b6000396000f3fe608060405234801561001057600080fd5b50600436106101165760003560e01c806370a08231116100a2578063a457c2d711610071578063a457c2d7146102ad578063a9059cbb146102dd578063b53a20d01461030d578063dd62ed3e14610329578063f2fde38b1461035957610116565b806370a0823114610237578063715018a6146102675780638da5cb5b1461027157806395d89b411461028f57610116565b80632c349627116100e95780632c349627146101b7578063313ce567146101c157806339509351146101df57806350669a031461020f5780635c975abb1461021957610116565b806306fdde031461011b578063095ea7b31461013957806318160ddd1461016957806323b872dd14610187575b600080fd5b610123610375565b6040516101309190611a6d565b60405180910390f35b610153600480360381019061014e919061152d565b610407565b6040516101609190611a52565b60405180910390f35b610171610425565b60405161017e9190611c0f565b60405180910390f35b6101a1600480360381019061019c91906114de565b61042f565b6040516101ae9190611a52565b60405180910390f35b6101bf610530565b005b6101c96105b6565b6040516101d69190611c2a565b60405180910390f35b6101f960048036038101906101f4919061152d565b6105bf565b6040516102069190611a52565b60405180910390f35b61021761066b565b005b6102216106f1565b60405161022e9190611a52565b60405180910390f35b610251600480360381019061024c9190611479565b610708565b60405161025e9190611c0f565b60405180910390f35b61026f610750565b005b61027961088d565b6040516102869190611a37565b60405180910390f35b6102976108b7565b6040516102a49190611a6d565b60405180910390f35b6102c760048036038101906102c2919061152d565b610949565b6040516102d49190611a52565b60405180910390f35b6102f760048036038101906102f2919061152d565b610a3d565b6040516103049190611a52565b60405180910390f35b61032760048036038101906103229190611569565b610aa3565b005b610343600480360381019061033e91906114a2565b610b2c565b6040516103509190611c0f565b60405180910390f35b610373600480360381019061036e9190611479565b610bb3565b005b60606003805461038490611d73565b80601f01602080910402602001604051908101604052809291908181526020018280546103b090611d73565b80156103fd5780601f106103d2576101008083540402835291602001916103fd565b820191906000526020600020905b8154815290600101906020018083116103e057829003601f168201915b5050505050905090565b600061041b610414610d5f565b8484610d67565b6001905092915050565b6000600254905090565b600061043c848484610f32565b6000600160008673ffffffffffffffffffffffffffffffffffffffff1673ffffffffffffffffffffffffffffffffffffffff1681526020019081526020016000206000610487610d5f565b73ffffffffffffffffffffffffffffffffffffffff1673ffffffffffffffffffffffffffffffffffffffff16815260200190815260200160002054905082811015610507576040517f08c379a00000000000000000000000000000000000000000000000000000000081526004016104fe90611b4f565b60405180910390fd5b61052485610513610d5f565b858461051f9190611cb7565b610d67565b60019150509392505050565b610538610d5f565b73ffffffffffffffffffffffffffffffffffffffff1661055661088d565b73ffffffffffffffffffffffffffffffffffffffff16146105ac576040517f08c379a00000000000000000000000000000000000000000000000000000000081526004016105a390611b6f565b60405180910390fd5b6105b46111b1565b565b60006012905090565b60006106616105cc610d5f565b8484600160006105da610d5f565b73ffffffffffffffffffffffffffffffffffffffff1673ffffffffffffffffffffffffffffffffffffffff16815260200190815260200160002060008873ffffffffffffffffffffffffffffffffffffffff1673ffffffffffffffffffffffffffffffffffffffff1681526020019081526020016000205461065c9190611c61565b610d67565b6001905092915050565b610673610d5f565b73ffffffffffffffffffffffffffffffffffffffff1661069161088d565b73ffffffffffffffffffffffffffffffffffffffff16146106e7576040517f08c379a00000000000000000000000000000000000000000000000000000000081526004016106de90611b6f565b60405180910390fd5b6106ef611254565b565b6000600560149054906101000a900460ff16905090565b60008060008373ffffffffffffffffffffffffffffffffffffffff1673ffffffffffffffffffffffffffffffffffffffff168152602001908152602001600020549050919050565b610758610d5f565b73ffffffffffffffffffffffffffffffffffffffff1661077661088d565b73ffffffffffffffffffffffffffffffffffffffff16146107cc576040517f08c379a00000000000000000000000000000000000000000000000000000000081526004016107c390611b6f565b60405180910390fd5b600073ffffffffffffffffffffffffffffffffffffffff16600560009054906101000a900473ffffffffffffffffffffffffffffffffffffffff1673ffffffffffffffffffffffffffffffffffffffff167f8be0079c531659141344cd1fd0a4f28419497f9722a3daafe3b4186f6b6457e060405160405180910390a36000600560006101000a81548173ffffffffffffffffffffffffffffffffffffffff021916908373ffffffffffffffffffffffffffffffffffffffff160217905550565b6000600560009054906101000a900473ffffffffffffffffffffffffffffffffffffffff16905090565b6060600480546108c690611d73565b80601f01602080910402602001604051908101604052809291908181526020018280546108f290611d73565b801561093f5780601f106109145761010080835404028352916020019161093f565b820191906000526020600020905b81548152906001019060200180831161092257829003601f168201915b5050505050905090565b60008060016000610958610d5f565b73ffffffffffffffffffffffffffffffffffffffff1673ffffffffffffffffffffffffffffffffffffffff16815260200190815260200160002060008573ffffffffffffffffffffffffffffffffffffffff1673ffffffffffffffffffffffffffffffffffffffff16815260200190815260200160002054905082811015610a15576040517f08c379a0000000000000000000000000000000000000000000000000000000008152600401610a0c90611bcf565b60405180910390fd5b610a32610a20610d5f565b858584610a2d9190611cb7565b610d67565b600191505092915050565b6000610a476106f1565b15610a87576040517f08c379a0000000000000000000000000000000000000000000000000000000008152600401610a7e90611b2f565b60405180910390fd5b610a99610a92610d5f565b8484610f32565b6001905092915050565b610aab610d5f565b73ffffffffffffffffffffffffffffffffffffffff16610ac961088d565b73ffffffffffffffffffffffffffffffffffffffff1614610b1f576040517f08c379a0000000000000000000000000000000000000000000000000000000008152600401610b1690611b6f565b60405180910390fd5b610b2933826112f6565b50565b6000600160008473ffffffffffffffffffffffffffffffffffffffff1673ffffffffffffffffffffffffffffffffffffffff16815260200190815260200160002060008373ffffffffffffffffffffffffffffffffffffffff1673ffffffffffffffffffffffffffffffffffffffff16815260200190815260200160002054905092915050565b610bbb610d5f565b73ffffffffffffffffffffffffffffffffffffffff16610bd961088d565b73ffffffffffffffffffffffffffffffffffffffff1614610c2f576040517f08c379a0000000000000000000000000000000000000000000000000000000008152600401610c2690611b6f565b60405180910390fd5b600073ffffffffffffffffffffffffffffffffffffffff168173ffffffffffffffffffffffffffffffffffffffff161415610c9f576040517f08c379a0000000000000000000000000000000000000000000000000000000008152600401610c9690611acf565b60405180910390fd5b8073ffffffffffffffffffffffffffffffffffffffff16600560009054906101000a900473ffffffffffffffffffffffffffffffffffffffff1673ffffffffffffffffffffffffffffffffffffffff167f8be0079c531659141344cd1fd0a4f28419497f9722a3daafe3b4186f6b6457e060405160405180910390a380600560006101000a81548173ffffffffffffffffffffffffffffffffffffffff021916908373ffffffffffffffffffffffffffffffffffffffff16021790555050565b600033905090565b600073ffffffffffffffffffffffffffffffffffffffff168373ffffffffffffffffffffffffffffffffffffffff161415610dd7576040517f08c379a0000000000000000000000000000000000000000000000000000000008152600401610dce90611baf565b60405180910390fd5b600073ffffffffffffffffffffffffffffffffffffffff168273ffffffffffffffffffffffffffffffffffffffff161415610e47576040517f08c379a0000000000000000000000000000000000000000000000000000000008152600401610e3e90611aef565b60405180910390fd5b80600160008573ffffffffffffffffffffffffffffffffffffffff1673ffffffffffffffffffffffffffffffffffffffff16815260200190815260200160002060008473ffffffffffffffffffffffffffffffffffffffff1673ffffffffffffffffffffffffffffffffffffffff168152602001908152602001600020819055508173ffffffffffffffffffffffffffffffffffffffff168373ffffffffffffffffffffffffffffffffffffffff167f8c5be1e5ebec7d5bd14f71427d1e84f3dd0314c0f7b2291e5b200ac8c7c3b92583604051610f259190611c0f565b60405180910390a3505050565b600073ffffffffffffffffffffffffffffffffffffffff168373ffffffffffffffffffffffffffffffffffffffff161415610fa2576040517f08c379a0000000000000000000000000000000000000000000000000000000008152600401610f9990611b8f565b60405180910390fd5b600073ffffffffffffffffffffffffffffffffffffffff168273ffffffffffffffffffffffffffffffffffffffff161415611012576040517f08c379a000000000000000000000000000000000000000000000000000000000815260040161100990611a8f565b60405180910390fd5b61101d83838361144a565b60008060008573ffffffffffffffffffffffffffffffffffffffff1673ffffffffffffffffffffffffffffffffffffffff168152602001908152602001600020549050818110156110a3576040517f08c379a000000000000000000000000000000000000000000000000000000000815260040161109a90611b0f565b60405180910390fd5b81816110af9190611cb7565b6000808673ffffffffffffffffffffffffffffffffffffffff1673ffffffffffffffffffffffffffffffffffffffff16815260200190815260200160002081905550816000808573ffffffffffffffffffffffffffffffffffffffff1673ffffffffffffffffffffffffffffffffffffffff168152602001908152602001600020600082825461113f9190611c61565b925050819055508273ffffffffffffffffffffffffffffffffffffffff168473ffffffffffffffffffffffffffffffffffffffff167fddf252ad1be2c89b69c2b068fc378daa952ba7f163c4a11628f55a4df523b3ef846040516111a39190611c0f565b60405180910390a350505050565b6111b96106f1565b156111f9576040517f08c379a00000000000000000000000000000000000000000000000000000000081526004016111f090611b2f565b60405180910390fd5b6001600560146101000a81548160ff0219169083151502179055507f62e78cea01bee320cd4e420270b5ea74000d11b0c9f74754ebdbfc544b05a25861123d610d5f565b60405161124a9190611a37565b60405180910390a1565b61125c6106f1565b61129b576040517f08c379a000000000000000000000000000000000000000000000000000000000815260040161129290611aaf565b60405180910390fd5b6000600560146101000a81548160ff0219169083151502179055507f5db9ee0a495bf2e6ff9c91a7834c1ba4fdd244a5e8aa4e537bd38aeae4b073aa6112df610d5f565b6040516112ec9190611a37565b60405180910390a1565b600073ffffffffffffffffffffffffffffffffffffffff168273ffffffffffffffffffffffffffffffffffffffff161415611366576040517f08c379a000000000000000000000000000000000000000000000000000000000815260040161135d90611bef565b60405180910390fd5b6113726000838361144a565b80600260008282546113849190611c61565b92505081905550806000808473ffffffffffffffffffffffffffffffffffffffff1673ffffffffffffffffffffffffffffffffffffffff16815260200190815260200160002060008282546113d99190611c61565b925050819055508173ffffffffffffffffffffffffffffffffffffffff16600073ffffffffffffffffffffffffffffffffffffffff167fddf252ad1be2c89b69c2b068fc378daa952ba7f163c4a11628f55a4df523b3ef8360405161143e9190611c0f565b60405180910390a35050565b505050565b60008135905061145e81611e14565b92915050565b60008135905061147381611e2b565b92915050565b60006020828403121561148b57600080fd5b60006114998482850161144f565b91505092915050565b600080604083850312156114b557600080fd5b60006114c38582860161144f565b92505060206114d48582860161144f565b9150509250929050565b6000806000606084860312156114f357600080fd5b60006115018682870161144f565b93505060206115128682870161144f565b925050604061152386828701611464565b9150509250925092565b6000806040838503121561154057600080fd5b600061154e8582860161144f565b925050602061155f85828601611464565b9150509250929050565b60006020828403121561157b57600080fd5b600061158984828501611464565b91505092915050565b61159b81611ceb565b82525050565b6115aa81611cfd565b82525050565b60006115bb82611c45565b6115c58185611c50565b93506115d5818560208601611d40565b6115de81611e03565b840191505092915050565b60006115f6602383611c50565b91507f45524332303a207472616e7366657220746f20746865207a65726f206164647260008301527f65737300000000000000000000000000000000000000000000000000000000006020830152604082019050919050565b600061165c601483611c50565b91507f5061757361626c653a206e6f74207061757365640000000000000000000000006000830152602082019050919050565b600061169c602683611c50565b91507f4f776e61626c653a206e6577206f776e657220697320746865207a65726f206160008301527f64647265737300000000000000000000000000000000000000000000000000006020830152604082019050919050565b6000611702602283611c50565b91507f45524332303a20617070726f766520746f20746865207a65726f20616464726560008301527f73730000000000000000000000000000000000000000000000000000000000006020830152604082019050919050565b6000611768602683611c50565b91507f45524332303a207472616e7366657220616d6f756e742065786365656473206260008301527f616c616e636500000000000000000000000000000000000000000000000000006020830152604082019050919050565b60006117ce601083611c50565b91507f5061757361626c653a20706175736564000000000000000000000000000000006000830152602082019050919050565b600061180e602883611c50565b91507f45524332303a207472616e7366657220616d6f756e742065786365656473206160008301527f6c6c6f77616e63650000000000000000000000000000000000000000000000006020830152604082019050919050565b6000611874602083611c50565b91507f4f776e61626c653a2063616c6c6572206973206e6f7420746865206f776e65726000830152602082019050919050565b60006118b4602583611c50565b91507f45524332303a207472616e736665722066726f6d20746865207a65726f20616460008301527f64726573730000000000000000000000000000000000000000000000000000006020830152604082019050919050565b600061191a602483611c50565b91507f45524332303a20617070726f76652066726f6d20746865207a65726f2061646460008301527f72657373000000000000000000000000000000000000000000000000000000006020830152604082019050919050565b6000611980602583611c50565b91507f45524332303a2064656372656173656420616c6c6f77616e63652062656c6f7760008301527f207a65726f0000000000000000000000000000000000000000000000000000006020830152604082019050919050565b60006119e6601f83611c50565b91507f45524332303a206d696e7420746f20746865207a65726f2061646472657373006000830152602082019050919050565b611a2281611d29565b82525050565b611a3181611d33565b82525050565b6000602082019050611a4c6000830184611592565b92915050565b6000602082019050611a6760008301846115a1565b92915050565b60006020820190508181036000830152611a8781846115b0565b905092915050565b60006020820190508181036000830152611aa8816115e9565b9050919050565b60006020820190508181036000830152611ac88161164f565b9050919050565b60006020820190508181036000830152611ae88161168f565b9050919050565b60006020820190508181036000830152611b08816116f5565b9050919050565b60006020820190508181036000830152611b288161175b565b9050919050565b60006020820190508181036000830152611b48816117c1565b9050919050565b60006020820190508181036000830152611b6881611801565b9050919050565b60006020820190508181036000830152611b8881611867565b9050919050565b60006020820190508181036000830152611ba8816118a7565b9050919050565b60006020820190508181036000830152611bc88161190d565b9050919050565b60006020820190508181036000830152611be881611973565b9050919050565b60006020820190508181036000830152611c08816119d9565b9050919050565b6000602082019050611c246000830184611a19565b92915050565b6000602082019050611c3f6000830184611a28565b92915050565b600081519050919050565b600082825260208201905092915050565b6000611c6c82611d29565b9150611c7783611d29565b9250827fffffffffffffffffffffffffffffffffffffffffffffffffffffffffffffffff03821115611cac57611cab611da5565b5b828201905092915050565b6000611cc282611d29565b9150611ccd83611d29565b925082821015611ce057611cdf611da5565b5b828203905092915050565b6000611cf682611d09565b9050919050565b60008115159050919050565b600073ffffffffffffffffffffffffffffffffffffffff82169050919050565b6000819050919050565b600060ff82169050919050565b60005b83811015611d5e578082015181840152602081019050611d43565b83811115611d6d576000848401525b50505050565b60006002820490506001821680611d8b57607f821691505b60208210811415611d9f57611d9e611dd4565b5b50919050565b7f4e487b7100000000000000000000000000000000000000000000000000000000600052601160045260246000fd5b7f4e487b7100000000000000000000000000000000000000000000000000000000600052602260045260246000fd5b6000601f19601f8301169050919050565b611e1d81611ceb565b8114611e2857600080fd5b50565b611e3481611d29565b8114611e3f57600080fd5b5056fea26469706673582212203e4e48dfaf2d22ca714e7e5fbf652c690804c545b4f002365aea0871197ae4cb64736f6c63430008000033",
  "linkReferences": {},
  "deployedLinkReferences": {}
}